:100000000C94C4010C949A180C9473180C94EC0181
:100010000C94EC010C94EC010C94EC010C947D1903
:100020000C94EC010C94EC010C94EC010C94C118B0
:100030000C94EC010C94EC010C94EC010C94EC018C
:100040000C9429180C94EC010C94F7170C94D1170C
:100050000C94EC010C94EC010C94EC010C94EC016C
:100060000C94DF190C94EC015461736B5370696E3E
:10007000005461736B5475726E005461736B42610E
:10008000636B7570005461736B5363616E536F6E75
:100090006172005461736B53746570446574656379
:1000A00074696F6E005461736B436F727265637431
:1000B000436F757273650053746174655363616E49
:1000C000466F724E6577446972656374696F6E003E
:1000D00053746174654261636B7570546F41766FE0
:1000E00069644F62737461636C6500537461746515
:1000F0004261636B696E670053746174654D6F761E
:10010000696E6700537461746552657665727369D0
:100110006E67446972656374696F6E0053746174CD
:100120006553746F70706564005461736B4952520B
:10013000656D6F7465005461736B4E6561724F62DB
:10014000737461636C65446574656374696F6E0094
:100150003A2000537461746542617365003A20006F
:100160004D6F746F727320656E61626C65643D00E3
:100170004F62737461636C65206E6F206C6F6E6785
:1001800065722064657465637465642E004C6566F1
:10019000742049522073656E736F72732074726994
:1001A0006767657265642E005269676874204952FA
:1001B0002073656E736F72732074726967676572FE
:1001C00065642E00426F7468206C65667420616EF1
:1001D000642072696768742049522073656E736F7A
:1001E0007273207472696767657265642E00467267
:1001F0006F6E742049522073656E736F7220747233
:1002000069676765726564005461736B4261736509
:100210000000000000240027002A00000000080061
:100220000201000003040700000000000000004974
:100230004D55206661696C656420746F20696E6934
:100240007469616C697A652E00494D5520636F6E43
:10025000666967757265642E00526F626F742072F2
:10026000656164792E005374617465206D61636803
:10027000696E6520696E697469616C697A65642E5E
:1002800000536F6E617220696E697469616C697A7E
:1002900065642E00494D550049522052656D6F74BA
:1002A00065207265636569766572206E6F7420667D
:1002B0006F756E642E0049522072656D6F746520F3
:1002C0007265636569766572004D6F746F72207335
:1002D0006869656C6420636F6E66696775726564D2
:1002E0002E004D6F746F7220636F6E74726F6C6C42
:1002F0006572206E6F7420666F756E642E004D6F90
:10030000746F7220736869656C64004932432053CE
:100310006869656C640000000000250028002B005F
:100320000000000023002600290004040404040443
:100330000404020202020202030303030303010294
:100340000408102040800102040810200102040863
:100350001020204E4F542064657465637465642ECC
:10036000002064657465637465642E0020617420E8
:1003700061646472657373203078004465746563EA
:1003800074696E672000771A11241FBECFEFD8E082
:10039000DEBFCDBF11E0A0E0B1E0EAEBF6E402C0C1
:1003A00005900D92AC3DB107D9F724E0ACEDB1E07A
:1003B00001C01D92A332B207E1F711E0C4ECD1E015
:1003C00004C02197FE010E945523C33CD107C9F701
:1003D0000E947A1C0C945B230C940000CF93DF9353
:1003E0001F92CDB7DEB71982A0911D02B0911E02F7
:1003F00081E8109731F11B96ED91FC911C9721E05B
:10040000AE014F5F5F4F67E018968C91099581119F
:100410001CC01982A0911D02B0911E021996ED9187
:10042000FC911A9721E0AE014F5F5F4F67E018968D
:100430008C910995811105C0E0911D02F0911E0279
:1004400013820F90DF91CF9108958FEFFACFEF9243
:10045000FF920F931F93CF93DF938C017B01D0E02A
:10046000C0E0F701EC0FFD1F6491662361F0D80135
:10047000ED91FC910190F081E02DC8010995892B47
:1004800011F02196EECFCE01DF91CF911F910F9108
:10049000FF90EF900895AF92BF92CF92DF92EF92CC
:1004A000FF920F931F93CF93DF936C017B018B011E
:1004B000040F151FEB015E01AE18BF08C017D1076E
:1004C00059F06991D601ED91FC910190F081E02DF8
:1004D000C6010995892B79F7C501DF91CF911F914D
:1004E0000F91FF90EF90DF90CF90BF90AF90089565
:1004F000FC01538D448D252F30E0842F90E0821B2A
:10050000930B541710F0CF96089501970895FC01AE
:10051000918D828D981761F0A28DAE0FBF2FB11D06
:100520005D968C91928D9F5F9F73928F90E008955E
:100530008FEF9FEF0895FC01918D828D981731F018
:10054000828DE80FF11D858D90E008958FEF9FEF6C
:100550000895FC01918D228D892F90E0805C9F4F42
:10056000821B91098F73992708958FE192E00E9471
:10057000A90221E0892B09F420E0822F089580E070
:1005800090E0892B29F00E94B50281110C940000A3
:100590000895FC01A48DA80FB92FB11DA35ABF4F18
:1005A0002C91848D90E001968F739927848FA68972
:1005B000B7892C93A089B1898C91837080648C93C6
:1005C000938D848D981306C00288F389E02D808175
:1005D0008F7D80830895EF92FF920F931F93CF93A7
:1005E000DF93EC0181E0888F9B8D8C8D98131AC06E
:1005F000E889F989808185FF15C09FB7F894EE8955
:10060000FF896083E889F9898081837080648083B1
:100610009FBF81E090E0DF91CF911F910F91FF90FC
:10062000EF900895F62E0B8D10E00F5F1F4F0F73A4
:100630001127E02E8C8D8E110CC00FB607FCFACF5F
:10064000E889F989808185FFF5CFCE010E94C90232
:10065000F1CFEB8DEC0FFD2FF11DE35AFF4FF08230
:100660009FB7F8940B8FEA89FB8980818062CFCF96
:10067000CF93DF93EC01888D8823B9F0AA89BB89D9
:10068000E889F9898C9185FD03C0808186FD0DC0C4
:100690000FB607FCF7CF8C9185FFF2CF808185FFE5
:1006A000EDCFCE010E94C902E9CFDF91CF9108952D
:1006B000833081F028F4813099F08230A9F00895D8
:1006C0008730A9F08830C9F08430B1F4809180007F
:1006D0008F7D03C0809180008F7780938000089584
:1006E00084B58F7784BD089584B58F7DFBCF8091CD
:1006F000B0008F778093B00008958091B0008F7D17
:10070000F9CFCF93DF93282F30E0F901E55EFD4F5D
:100710008491F901E25CFC4FD491F901E65DFC4F54
:10072000C491CC23A1F081110E945803EC2FF0E07A
:10073000EE0FFF1FE05EFC4FA591B491EC91ED230D
:1007400081E090E009F480E0DF91CF91089580E0AE
:1007500090E0FACF1F93CF93DF93282F30E0F90179
:10076000E55EFD4F8491F901E25CFC4FD491F90103
:10077000E65DFC4FC491CC23A9F0162F81110E9495
:100780005803EC2FF0E0EE0FFF1FEA5EFC4FA5913F
:10079000B4918FB7F894EC91111108C0D095DE2375
:1007A000DC938FBFDF91CF911F910895DE2BF8CF9F
:1007B000CF93DF9390E0FC01E25CFC4F2491865DD7
:1007C0009C4FFC0184918823C9F090E0880F991F09
:1007D000FC01EF5EFD4FA591B491FC01EA5EFC4F78
:1007E000C591D49161110DC09FB7F8948C9120955B
:1007F00082238C938881282328839FBFDF91CF9108
:100800000895623051F49FB7F8943C91822F8095FF
:1008100083238C93E8812E2BEFCF8FB7F894EC9144
:100820002E2B2C938FBFEACF3FB7F8948091100204
:1008300090911102A0911202B091130226B5A89BCB
:1008400005C02F3F19F00196A11DB11D3FBFBA2F62
:10085000A92F982F8827BC01CD01620F711D811D22
:10086000911D42E0660F771F881F991F4A95D1F7A7
:100870000895CF92DF92EF92FF920F931F93CF9341
:10088000DF9300D000D01F92CDB7DEB720913703A1
:1008900030E0A901425C5C4FFA0184918D83265DB2
:1008A0003C4FF9018491E82FF0E0EE0FFF1FE05E6E
:1008B000FC4F859194919A8389838091360390E0CF
:1008C000FC01E25CFC4FE491EC83FA0144914B8320
:1008D000FC01E65DFC4FE491F0E0EE0FFF1FEA5EE5
:1008E000FC4FA591B491F9012491E22FF0E0EE0FB5
:1008F000FF1FE05EFC4F059114918C819C918095C7
:1009000089238C938BE090E00197F1F78C819C9187
:10091000892B8C9387E290E00197F1F78C819C9171
:10092000809589238C930E9414046B017C01F0E56F
:10093000CF0EF6E4DF1EE11CF11CC616D706E80652
:10094000F90608F45FC0F80120813B81232321F1DF
:10095000645071098109910960933A0370933B03D4
:1009600080933C0390933D030E9414046B017C012F
:10097000F0E1CF0EF9E5DF1EE11CF11CE981FA81FF
:100980002D813081232359F0C616D706E806F906D3
:1009900030F00E941404F2CF0E941404CECFC09015
:1009A0003A03D0903B03E0903C03F0903D038B0171
:1009B0009C010C191D092E093F091016110612067B
:1009C0001306CCF42BEF3FEF2C193D09C901860F1C
:1009D000971F90933903809338030F900F900F90D7
:1009E0000F900F90DF91CF911F910F91FF90EF909B
:1009F000DF90CF900895A60145505109CA01861B8A
:100A0000970BE7CF8FEF9FEFE8CFCF92DF92EF9278
:100A1000FF92CF93DF931F92CDB7DEB7809137035C
:100A200090E0FC01E25CFC4FE491E983FC01E65DAF
:100A3000FC4FE491F0E0EE0FFF1FE05EFC4FA5914C
:100A4000B4918C9199818923B1F4C0903A03D090EC
:100A50003B03E0903C03F0903D030E94140428E522
:100A6000C20E2AECD21EE11CF11C21E0C616D706EC
:100A7000E806F90608F020E0822F0F90DF91CF9171
:100A8000FF90EF90DF90CF9008958F929F92AF925A
:100A9000BF92CF92DF92EF92FF926B017C010E9496
:100AA00014044B015C01C114D104E104F104B9F058
:100AB0000E941404681979098A099B09683E7340E9
:100AC0008105910580F321E0C21AD108E108F108FF
:100AD00088EE880E83E0981EA11CB11CE4CFFF9025
:100AE000EF90DF90CF90BF90AF909F908F90089540
:100AF0000F931F93CF93DF938C01D0E0C0E0C0171A
:100B0000D107B1F061E08DE00E94AA0362E370E0DA
:100B100080E090E00E94450560E08DE00E94AA031D
:100B200068EC70E080E090E00E9445052196E7CFF8
:100B3000DF91CF911F910F910895BC0190E080E06B
:100B40000C9445052FB7F89460910C0270910D023A
:100B500080910E0290910F022FBF08950895FC011D
:100B6000848195810895FC018281837090E00895CD
:100B70000F931F93CF93DF931F92CDB7DEB71982E8
:100B8000E0911D02F0911E02309759F18C01838192
:100B900081110EC0E0911D02F0911E028381882315
:100BA00059F08FEF0F90DF91CF911F910F91089522
:100BB0000E94EE018111EECFA0911D02B0911E02A4
:100BC0001B96ED91FC911C9721E0AE014F5F5F4FAA
:100BD0006DE318968C91099599819F70F801908327
:100BE000E1CF81E8DFCF0F931F93CF93DF9300D046
:100BF000CDB7DEB719821A8220911D0230911E02F4
:100C000011E8232BF1F1082FCE0102960E94B805BE
:100C10001FEF811136C0A0911D02B0911E021B96DC
:100C2000ED91FC911C9718968C919A8121E0AE0170
:100C30004F5F5F4F6DE391112CC00995182F811103
:100C400020C09981907F0F70092B0983A0911D020C
:100C5000B0911E021996ED91FC911A9721E0AE0118
:100C60004F5F5F4F6DE318968C910995182FE091B7
:100C70001D02F0911E020584F685E02D88E592E0C4
:100C80000995812F0F900F90DF91CF911F910F91B8
:100C900008950995182F811121C08981807F89834A
:100CA000A0911D02B0911E0211E8109769F01996EB
:100CB000ED91FC911A9721E0AE014F5F5F4F6DE31C
:100CC00018968C910995182FE0911D02F0911E0243
:100CD0000584F685E02D84E190E00995002389F2F2
:100CE000A0911D02B0911E021B96ED91FC911C97E4
:100CF00021E0AE014F5F5F4F6DE318968C919DCF61
:100D00001F93CF93DF9300D0CDB7DEB71A8219823D
:100D100080911D0290911E0211E8892B69F0CE018D
:100D200001960E94B805882371F01FEF89818823FE
:100D300019F00E94F305180F812F0F900F90DF918B
:100D4000CF911F9108958981811128C0A0911D0222
:100D5000B0911E021B96ED91FC911C9721E0AE0113
:100D60004E5F5F4F6BE318968C910995182F811198
:100D7000DDCF8A8180688A83A0911D02B0911E0216
:100D80001996ED91FC911A9721E0AE014E5F5F4FED
:100D90006BE318968C910995182FC8CF80E00E94BC
:100DA000F305882399F2C1CFAF92BF92CF92DF9221
:100DB000EF92FF921F93CF93DF9300D000D000D02B
:100DC0001F92CDB7DEB71982E0911D02F0911E028D
:100DD000309791F41FEF812F27960FB6F894DEBF5E
:100DE0000FBECDBFDF91CF911F91FF90EF90DF90AD
:100DF000CF90BF90AF9008957C01838181119CC0FA
:100E0000E0911D02F0911E0283818111E3CFA09138
:100E10001D02B0911E021B96ED91FC911C9721E0E2
:100E2000CE0101966C01AC016BE318968C9109958B
:100E3000B82E898181FF17C01F82198280911D02FF
:100E400090911E0211E8892B69F0C6010E94B80535
:100E5000882309F476C01FEF8981882319F00E9446
:100E6000F305180FB10EB110B5CF86E0F60111925F
:100E70008A95E9F7E0911D02F0911E02309709F47E
:100E8000A9CF838181118EC0E0911D02F0911E02D5
:100E9000838181119FCFA0911D02B0911E021B96EC
:100EA000ED91FC911C9726E0A60164E118968C91C7
:100EB0000995182F6A818981762F682FAC808B81E4
:100EC000BA2CA82ECE808D81DC2CC82E111182CF99
:100ED000072E000C880B990B0E94132220E030E0B3
:100EE00040E85DE30E94C822F7016083718382833A
:100EF0009383B501BB0C880B990B0E94132220E051
:100F000030E040E85DE30E94C822F7016483758306
:100F100086839783B601DD0C880B990B0E94132200
:100F200020E030E040E85DE30E94C822F7016087DE
:100F30007187828793874FCF0E94EE01811160CF26
:100F400066CF8981811128C0A0911D02B0911E0237
:100F50001B96ED91FC911C9721E0AE01495F5F4F1C
:100F60006BE318968C910995182F811175CF8F819D
:100F70008D7F8F83A0911D02B0911E021996ED9175
:100F8000FC911A9721E0AE01495F5F4F6BE3189621
:100F90008C910995182F60CF80E00E94F30588237B
:100FA00099F259CF0E94EE0181116ECF74CFCF9389
:100FB000DF93FC01228133812130310571F0EC0196
:100FC0000190F081E02D0280F381E02D70E060E07F
:100FD000099581E090E09B838A83DF91CF9108950A
:100FE000CF93DF93FC01228133812330310571F0EF
:100FF000EC010190F081E02D0280F381E02D62E0B0
:1010000070E0099583E090E09B838A83DF91CF9124
:101010000895EF92FF920F931F93CF93DF93EC010C
:10102000E0901901F0901A018701F80181919191E6
:101030008F01009719F00E94F007F7CF209711F465
:10104000CBE1D2E0D0931A01C09319018991999113
:10105000009719F00E94D707F9CFC701DF91CF9110
:101060001F910F91FF90EF900895DC0112962D9142
:101070003C9113972130310541F4ED91FC910190A1
:10108000F081E02D099581E00895232B19F40E9449
:10109000D707F9CF80E008950F931F93CF93DF9385
:1010A000009118021091190208171907B1F0EC010C
:1010B0000115110519F0C8010E94F007D09319021B
:1010C000C0931802209719F0CE010E94D707C801DB
:1010D000DF91CF911F910F91089510E000E0F7CFBD
:1010E0000F931F93DC01F89490911A0280E09930DD
:1010F000FCF480911602082F10E0F80183E0EE0F57
:10110000FF1F8A95E1F7E454FD4FB783A6837183EF
:1011100060832283338344835583A8014F5F5F4FED
:1011200047705527409316029F5F90931A0281E003
:1011300078941F910F910895CF93DF93CDB7DEB7C9
:1011400028970FB6F894DEBF0FBECDBF28960FB616
:10115000F894DEBF0FBECDBFDF91CF910C94700825
:10116000CF92DF92EF92FF92CF93DF93EC010E9438
:10117000A2056B017C0189859A85AB85BC85C81663
:10118000D906EA06FB0610F19C8195FF09C0CE0145
:10119000DF91CF91FF90EF90DF90CF900C94F0070C
:1011A000892F8F7196FF19C09F7B9C8360E00E94FE
:1011B000AA038C8186FF15C08D819E81C80ED91E21
:1011C000E11CF11CC986DA86EB86FC86DF91CF91A3
:1011D000FF90EF90DF90CF90089590649C8361E042
:1011E000E6CF8F819885EACFCF93DF93EC0161152D
:1011F000710531F062307105B9F0DF91CF9108953A
:101200008C8180648C8361E08F710E94AA030E94AC
:10121000A2052D813E81620F731F811D911D69877B
:101220007A878B879C87E9CF8C818F7B8C8360E06A
:101230008F71DF91CF910C94AA0388E092E008951A
:10124000ECEBF0E010828091140280830895CF923D
:10125000DF92EF92FF92CF93DF93C091FC02D09187
:10126000FD020E94A2052091FC023091FD026B015B
:101270007C01C20ED31EE11CF11C84E98093BC00EA
:101280008091BC0084FF14C02097D1F30E94A20576
:10129000C616D706E806F90698F7C7E00E942009A7
:1012A0008C2FDF91CF91FF90EF90DF90CF9008953A
:1012B000C0E0F4CFCF92DF92EF92FF92CF93DF9313
:1012C000C091FC02D091FD020E94A2052091FC0277
:1012D0003091FD026B017C01C20ED31EE11CF11C9A
:1012E0008091BC0087FD13C02097D1F30E94A20516
:1012F000C616D706E806F90698F70E94200980E08E
:10130000DF91CF91FF90EF90DF90CF90089581E033
:10131000F7CFCF938093BB0084E88093BC000E94FA
:101320005A09C5E0882349F0C091B900C87FC83286
:1013300051F0C03329F40E9427098C2FCF910895D2
:101340000E942009FACFC0E0F8CFCF93C82F809336
:10135000BB0084E88093BC000E945A09811106C03A
:10136000C0FD16C0C2E08C2FCF910895C091B90086
:10137000C87FC03251F028F4C83161F00E942009C2
:10138000F2CFC03439F0C834C9F70E942709EBCF37
:10139000C5E0E9CFC0E0E7CFCF9384EA8093BC00FB
:1013A0000E945A09C1E0882351F0C091B900C87F5A
:1013B000C03121F0C83331F0C83009F4C0E08C2FBF
:1013C000CF9108950E942009FACFEF92FF920F93D8
:1013D0001F93CF93DF93D82FC62F8A0179010E94E4
:1013E000CC09811123C08D2F880F0E94A50981117E
:1013F0001DC08C2F0E948909811118C0C0E08C2F5C
:1014000090E08E159F0550F4800F911FFC018081A4
:101410000E94890981110AC0CF5FF1CFDF91CF917E
:101420001F910F91FF90EF900C942709DF91CF91BE
:101430001F910F91FF90EF900895CF93DF931F922C
:10144000CDB7DEB7982F80915203698321E030E059
:10145000AE014F5F5F4F692F0E94E5090F90DF914A
:10146000CF91089530E00C94E509CF93DF9300D03D
:1014700000D0CDB7DEB719825A832B833C83660F29
:10148000660F6A5F24E030E0AE014F5F5F4FFC0102
:1014900080810E94E5090F900F900F900F90DF91CF
:1014A000CF910895CF92DF92EF92FF920F931F9307
:1014B000CF93DF93182F062FD72F6A010E94CC09F4
:1014C000C82F811129C0812F880F8F5F0E94A50925
:1014D000C82F811121C0E02EFD2E01E010E0DAEAD4
:1014E000C016D10678F184E80C151D0508F484ECCB
:1014F0008093BC00F701D0830E945A09882361F1D0
:10150000C091B900C87FC035A9F0C83579F40C1571
:101510001D0580F40E9427098C2FDF91CF911F9128
:101520000F91FF90EF90DF90CF9008950E942009D7
:10153000C111F2CF8091BB00F70181937F010F5F52
:101540001F4FCECFDF91CF911F910F91FF90EF9062
:10155000DF90CF900C942709C6E0DECFEF92FF9288
:101560000F931F93CF93DF93C82FD62F8A01790152
:101570000E94CC09811116C08C2F880F0E94A509EA
:10158000811110C08D2F0E94890981110BC0A70104
:10159000B8018C2FDF91CF911F910F91FF90EF90A9
:1015A0000C94520ADF91CF911F910F91FF90EF9011
:1015B000089530E00C94AE0ACA01089581E090E0ED
:1015C0000895089590E080E008954F925F926F92A1
:1015D0007F928F929F92AF92BF92CF92DF92EF92C3
:1015E000FF920F931F93CF93DF93CDB7DEB7609732
:1015F0000FB6F894DEBF0FBECDBF8C01DC011A968A
:10160000CD90DD90ED90FC901D9720E030E0A90199
:10161000C701B6010E94C322181624F0F7FAF0940D
:10162000F7F8F094A7019601F8016681778180852B
:1016300091850E94642118167CF1C8010E94F00770
:10164000D8011A961D921D921D921C921D97F801A9
:10165000168217821086118620E030E0A9016DE025
:101660007AE0C80104960E949C0860960FB6F89430
:10167000DEBF0FBECDBFDF91CF911F910F91FF90C5
:10168000EF90DF90CF90BF90AF909F908F907F9022
:101690006F905F904F9008950E9414046D877E872D
:1016A0008F87988BF80182899389A489B589CD8425
:1016B000DE84EF84F888C81AD90AEA0AFB0AF7FE22
:1016C00008C0F094E094D094C094C11CD11CE11CDB
:1016D000F11CF0E1CF16F7E2DF06E104F1042CF291
:1016E000CE0101960E94D40669857A858B859C85FA
:1016F0002AE037ED43EA5BE30E94F8204B015C01EE
:10170000D8011E964D905D906D907C905197A301ED
:1017100092010E94F72020E030E040E05FE30E9469
:10172000C822A30192010E94F8202B013C01C701AD
:10173000B6010E94132220E034E244E759E40E94FB
:1017400069219B01AC01C301B2010E94C8229B0127
:10175000AC01F80162857385848595850E94F82027
:10176000D8011A966D937D938D939C931D97F801E4
:1017700086869786A08AB18A8D859E85AF85B88931
:10178000828B938BA48BB58B70CF0895CF93DF930F
:10179000EC01809100038F710E94810321E0892B6D
:1017A00009F020E09091000397FB332730F98091F6
:1017B0000103231327C031E0380F3F70807F832B54
:1017C0008093010382958F70381728F0892F20FBB2
:1017D00086F9809300038091000320FB87F98093B2
:1017E000000386FD13C08091E101882379F020E099
:1017F00030E0A90160E174E0CE010496DF91CF9161
:101800000C949C08807F80930103E5CFDF91CF91FA
:101810000895672B59F48091000380648068809359
:10182000000380910103807F809301030895CF938B
:10183000DF93EC010E94F0071A861B861C861D862A
:101840001E821F821886198620E030E0A90166E119
:101850007AE0CE010496DF91CF910C949C084F92D0
:101860005F926F927F928F929F92AF92BF92CF9230
:10187000DF92EF92FF920F931F93CF93DF93CDB739
:10188000DEB760970FB6F894DEBF0FBECDBF8C01F8
:10189000DC011A96CD90DD90ED90FC901D9720E034
:1018A00030E0A901C701B6010E94C322181624F036
:1018B000F7FAF094F7F8F094A7019601F801668121
:1018C0007781808591850E9464211816D4F0C80123
:1018D0000E94170C60960FB6F894DEBF0FBECDBF06
:1018E000DF91CF911F910F91FF90EF90DF90CF90FC
:1018F000BF90AF909F908F907F906F905F904F9030
:1019000008950E94A205D8015696CD90DD90ED90E5
:10191000FC905997C616D706E806F90650F420E061
:1019200030E0A9016AE17AE0C80104960E949C08AF
:10193000D1CF0E9414046D877E878F87988BF80122
:1019400082899389A489B589CD84DE84EF84F8885F
:10195000C81AD90AEA0AFB0AF7FE08C0F094E09414
:10196000D094C094C11CD11CE11CF11CF0E1CF1635
:10197000F7E2DF06E104F1040CF4ACCFCE010196EE
:101980000E94D40669857A858B859C852AE037ED8F
:1019900043EA5BE30E94F8204B015C01D8011E96EC
:1019A0004D905D906D907C905197A30192010E94A3
:1019B000F72020E030E040E05FE30E94C822A3016E
:1019C00092010E94F8202B013C01C701B6010E9440
:1019D000132220E034E244E759E40E9469219B018C
:1019E000AC01C301B2010E94C8229B01AC01F80105
:1019F00062857385848595850E94F820D8011A96A2
:101A00006D937D938D939C931D97F80186869786A1
:101A1000A08AB18A8D859E85AF85B889828B938B8C
:101A2000A48BB58B57CF672B11F4FC011682089558
:101A3000CF93DF93672BD9F4EC01188E198E1A8E91
:101A40001B8E1C861D861E861F86188A198A1A8A76
:101A50001B8A0E94A205688779878A879B876C59B1
:101A60007F4F8F4F9F4F6C837D838E839F83DF914A
:101A7000CF9108950F931F93CF93DF93EC010E94B2
:101A8000A2050E811F81288539856017710782079D
:101A90009307A0F0CE010E94F0071E821F821886D5
:101AA000198620E030E0A90168E17AE0CE010496D1
:101AB000DF91CF911F910F910C947008DF91CF911E
:101AC0001F910F91089508958CE191E00895CF92B0
:101AD000DF92EF92FF920F931F93CF93DF93EC016E
:101AE00009851A85B801012E000C880B990B0E94FC
:101AF00013229B01AC016D817E818F8198850E94AC
:101B000069216B017C0169897A8990E080E00E94FB
:101B10001122A70196010E94642187FF16C0C70108
:101B2000B6010E94E2217A8B698B2BEF2003C00162
:101B3000219F900D112497FD0196959587952D85F0
:101B40003E85820F931F988B8F871A8619861D8278
:101B50001E821F821886DF91CF911F910F91FF90F7
:101B6000EF90DF90CF900895672BD1F48AE091E059
:101B70000E94090889ED93E00E94F0070E94A205E7
:101B80006C507E4F8F4F9F4F6093BF037093C00385
:101B90008093C1039093C20389EB93E00C94D70721
:101BA000089584E091E00895FC01148287E793E0B2
:101BB0000E94D70780E793E00C94D70788EF90E066
:101BC000089508958BEE90E008950C944C088F9240
:101BD0009F92AF92BF92CF92DF92EF92FF92CF93FC
:101BE000DF93EC010E94A205CC80DD80EE80FF80B7
:101BF000C616D706E806F90648F50E94A2056B014D
:101C00007C0126E9C20ED11CE11CF11C812C912C17
:101C10005401C0E0D0E00E940505882311F10E9424
:101C200039048F3F980729F5CF5FC53090F5D5303F
:101C300091F7C501B40125E030E040E050E00E949A
:101C4000C620245E3F4F25393D4018F5DF91CF91E6
:101C5000FF90EF90DF90CF90BF90AF909F908F90CC
:101C600008950E94A205C616D706E806F906E0F216
:101C7000DECF880E991EA11CB11CDF5F0E94A20559
:101C80006B017C0126E9C20ED11CE11CF11CC0E0F5
:101C9000CECF8BEF93E0DF91CF91FF90EF90DF906D
:101CA000CF90BF90AF909F908F900C94E50DFC016A
:101CB00082819381019751F4FB0180819181883168
:101CC000934021F486E194E00C94E50D0895CF92C1
:101CD000DF92EF92FF920F931F93CF93DF93EC016C
:101CE000DC01A25ABF4FA03282E0B8070CF03DC021
:101CF00080913403E8E8CE2ED12CC81AD10887FD94
:101D0000D394CC0CDD1CCC0CDD1C0D2C000CEE088F
:101D1000FF088091350308E512E0081B110987FDD3
:101D20001395000F111F000F111F012E000C220B25
:101D3000330BA90198012C193D094E095F09A53BF8
:101D4000B10514F0A4EBB0E0B7FF02C0B0E0A0E032
:101D50000E94BE2024EB30E040E050E00E9494203E
:101D6000C20ED31EE41EF51ED601E0913303EC3003
:101D700080F52091340388E890E0821B910927FDCB
:101D80009395880F991F880F991FA817B90784F09A
:101D90002091350388E592E0821B910927FD9395F8
:101DA000880F991F880F991FA817B9070CF4CD0148
:101DB0000297880F991F4FB7F8942E2F30E0F90142
:101DC000EE0FFF1FE20FF31FE25FFC4F9283818350
:101DD0004FBFD093DE01C093DD01DF91CF911F9102
:101DE0000F91FF90EF90DF90CF900895CF93DF9306
:101DF000EC018F8198850E94670E2E818F819885D6
:101E000035E02302800D911D112498878F8397FF61
:101E100003C0919581959109499714F021952E83DE
:101E2000DF91CF910895CF92DF92EF92FF92CF93FF
:101E3000DF93EC010E940505882369F10E943904B3
:101E40008F3F980709F463C04C9669E370E00E94E5
:101E500041232F8138858E856031710598F16F316E
:101E6000710500F16D33710578F01A861B861C86AA
:101E70001D86811162C0CE01DF91CF91FF90EF905E
:101E8000DF90CF900C94F60E19861B861C861D865B
:101E9000813009F047C0DF91CF91FF90EF90DF9044
:101EA000CF90089519861A861C861D86823099F374
:101EB0008B858F5F8B87833071F782E08E8782E01E
:101EC00096E00EC019861A861B861D86833019F38C
:101ED0008C858F5F8C878330F1F68E8783E096E068
:101EE00050E040E0A901332722276B01F12CE12CBF
:101EF000262B3D294E295F29BC01CE010496DF9196
:101F0000CF91FF90EF90DF90CF900C949C088D853F
:101F10008E5F8D87843008F4BECFCE010E94F60E0E
:101F20001D86B9CF8A858F5F8A87833009F0B3CF4A
:101F300081E08E8781E096E0D3CF89858F5F8987A6
:101F4000853009F0A8CF1E8680E096E0C9CFFC015D
:101F50006115710521F06230710559F00895108600
:101F6000178281E086831186128613861486158671
:101F7000168690E080E00C94670E80ED90E0089566
:101F800087EB90E0089586E391E0089585EA90E07C
:101F9000089583E990E0089585E890E0089589E246
:101FA00091E008958AE790E0089581E790E0089530
:101FB00088E690E0089583E591E0089508950895F6
:101FC000FB0101900020E9F73197AF01461B570B49
:101FD000DC01ED91FC910280F381E02D09948F9258
:101FE0009F92AF92BF92EF92FF920F931F93CF9366
:101FF000DF93CDB7DEB7A1970FB6F894DEBF0FBE63
:10200000CDBF7C01FA01CB0119A2223008F42AE0ED
:102010008E010F5D1F4F822E912CB12CA12CBF0180
:10202000A50194010E94C620F901CA016A300CF58D
:10203000605DD8016E938D01232B242B252B79F71E
:1020400090E080E0109721F0BD01C7010E94E00FF1
:10205000A1960FB6F894DEBF0FBECDBFDF91CF9132
:102060001F910F91FF90EF90BF90AF909F908F9036
:102070000895695CDECFCF92DF92EF92FF920F93CB
:102080001F93CF93DF932115310581F4DC01ED918E
:10209000FC910190F081E02D642FDF91CF911F9191
:1020A0000F91FF90EF90DF90CF9009942A30310587
:1020B00021F52AE077FF21C06A017B01EC01E8816C
:1020C000F9810190F081E02D6DE209958C014427A2
:1020D0005527BA014C195D096E097F092AE0CE0126
:1020E0000E94EF0F800F911FDF91CF911F910F91F1
:1020F000FF90EF90DF90CF900895DF91CF911F91E7
:102100000F91FF90EF90DF90CF900C94EF0F69ED5F
:1021100071E00C94E00FEF92FF920F931F93CF9317
:10212000DF938C01EB016F3F710519F014F0CFEFD5
:10213000D0E0C1302FEFD20714F4C1E0DFEFF80197
:102140002481358181E090E01216130614F090E0AE
:1021500080E0232F221F2227221FAC01421B51099E
:102160009A0181E090E01616170614F090E080E0E6
:10217000472F441F4427441F841B91092817390700
:1021800069F1F801E2809E2D92959695969593704F
:102190008381F82FF370EF2EEE0CEE0CE92AF82E67
:1021A000F694F6942F2D2F70F22EF80186819781E8
:1021B000049630E020E050E040E01616170674F573
:1021C0006F2D0E94350AF8018681978130E020E06A
:1021D00040E050E16E2D04960E94350AF801D58347
:1021E000C483D7FF03C0D195C195D1099E0184E076
:1021F000220F331F8A95E1F7F80162816695669593
:102200006F708681978150E040E00496DF91CF9116
:102210001F910F91FF90EF900C94350A672B61F09E
:102220006E2D0E94350AF8018681978130E020E00A
:1022300040E050E16F2DCFCF6E2D0E94350AF8019E
:102240008681978130E020E050E040E0F3CFCF93EB
:10225000DF9320911401222369F0EB01BC018EE38E
:1022600093E00E948B10BE0186E493E0DF91CF9152
:102270000C948B10DF91CF9108950E94D40D809122
:10228000DF019091E001BC010C942711AC01415099
:10229000510921E04837510508F020E02093DC0186
:1022A0009093E0018093DF01BC010E94271181E03F
:1022B0008093E1010895CF93DF93672B71F4EC01D4
:1022C00080E091E00E940908CE010E94D40D88ECC4
:1022D00090E0DF91CF910C944611DF91CF9108955A
:1022E000823531F468E37FEF88EC90E00C9427119D
:1022F0008C3429F468EC70E088E39FEFF7CF089501
:102300001F93CF93DF93CDB7DEB72C970FB6F8941A
:10231000DEBF0FBECDBF1CE497FD12E5BC0197FFE9
:1023200003C0719561957109072E000C880B990BFC
:102330000E9413226093DF037093E0038093E10314
:102340009093E2031092E3031092E4031092E503EA
:102350001092E603CE0101960E94D40669857A8523
:102360008B859C852AE037ED43EA5BE30E94F820E9
:102370006093E7037093E8038093E9039093EA0383
:102380000E9414046093EB037093EC038093ED03BD
:102390009093EE030E94A2056056704F8F4F9F4F9F
:1023A0006093EF037093F0038093F1039093F20333
:1023B000812F0E94701189ED93E00E94D7072C961F
:1023C0000FB6F894DEBF0FBECDBFDF91CF911F9146
:1023D0000895CF92DF92EF92FF92CF93DF93FC01AB
:1023E0002481222309F48BC0EC010E940505882377
:1023F00009F485C08D859E852091DD013091DE0137
:10240000AC01421B530B9A0157FF03C03195219534
:10241000310945E0429F6001439FD00C11240D2CEF
:10242000000CEE08FF080E94670EC701B6010E946B
:1024300045050E9439048F3F980709F460C04C9607
:1024400069E370E00E94412390E080E00E94112245
:102450009B01AC016D817E818F8198850E94F8205F
:102460006D837E838F83988789859A8501969A8765
:10247000898703971CF0CE010E94670D2B853C8550
:1024800045E0429FC001439F900D11242D853E855C
:10249000820F931F9E878D878B35910584F18985E7
:1024A0009A8502971CF0CE010E94670D1C828F85D1
:1024B00098890E94670E89899A89CC9750F48EE09A
:1024C00094E0DF91CF91FF90EF90DF90CF900C944C
:1024D000E50D8F859889009741F0DF91CF91FF90AE
:1024E000EF90DF90CF900C94801189ED93E0DF9115
:1024F000CF91FF90EF90DF90CF900C94170CDF916D
:10250000CF91FF90EF90DF90CF90089570E060E062
:1025100090E080E00E9427111092E101089561157A
:10252000710521F06230710529F0089588E39FEF6D
:102530000C9446110C948612FC01828193810197C0
:1025400031F5FB01808191818D30F3E09F07C9F067
:1025500040F48A30E3E09E0761F08C30934069F0EC
:102560000895873123E0920771F08831934049F054
:1025700008958EE194E00C94E50DFB0182810C94AA
:1025800070110C94861288E39FEF0C944611089505
:10259000672B31F490E080E00E9409080C948612C9
:1025A0000895FB01808191818631FAE09F0721F037
:1025B0008A319A4039F008950E9486128EE194E0A3
:1025C0000C94E50D8EE094E0FBCFCF92DF92EF927A
:1025D000FF92CF93DF936115710551F06230710561
:1025E000D1F1DF91CF91FF90EF90DF90CF900895E0
:1025F000EC0180E191E00E94090889ED93E00E94DE
:10260000F0070E94861286EA9FEF9E878D8781E001
:1026100090E09C878B871A8A198A188A1F861D82E8
:102620001E821F8218861A8619868C830E94A20534
:102630006B017C0126E9C20ED11CE11CF11C6C155A
:102640007D058E059F0568F60E9405058111C9CF9D
:102650000E94A205F4CF90E080E0DF91CF91FF903F
:10266000EF90DF90CF900C94670ECF93DF936115BE
:10267000710531F062307105E1F0DF91CF9108957D
:10268000EC0190E080E00E94090888E39FEF0E943F
:1026900046110E94A2056C507E4F8F4F9F4F6C8356
:1026A0007D838E839F8390E080E0DF91CF910C94B7
:1026B000670EDF91CF910C9486126115710521F0A0
:1026C0006230710549F0089590E080E00E940908A9
:1026D00088E39FEF0C9446110C9486124F925F9200
:1026E0006F927F928F929F92AF92BF92CF92DF9222
:1026F000EF92FF920F931F93CF93DF93CDB7DEB787
:1027000068970FB6F894DEBF0FBECDBF2091E101F0
:10271000222309F4D9C08C010E94A2052B013C019F
:10272000F80184819581A681B781481659066A0609
:102730007B0608F4C9C0CE0101960E94D4068984A4
:102740009A84AB84BC842DEC3CEC4CE45FE3D80170
:102750001C966D917D918D919C911F970E94C8222E
:102760006B017C012AE037ED43EA5BE3C501B4016C
:102770000E94F8202CEC3CEC4CE45EE30E94C82262
:102780009B01AC01C701B6010E94F8206D877E87CE
:102790008F87988BF80180859185A285B385A301E9
:1027A0009201281B390B4A0B5B0BCA01B9010E942D
:1027B000112220E030E04AE754E40E9469212D858F
:1027C0003E854F8558890E94C822D80150962D9188
:1027D0003D914D915C9153970E94F820698B7A8BC3
:1027E0008B8B9C8B9B01AC0160E070E0CB010E9465
:1027F000F7206B017C01F801208D318D428D538DC6
:102800000E94F8204B015C01D80158968D929D9250
:10281000AD92BC925B9780911401882359F120E01E
:1028200030E040EA51E4C701B6010E94C8226D8B36
:102830007E8B8F8B988F2DEC3CEC4CE45EE3C501D6
:10284000B4010E94C8229B01AC016D897E898F89E9
:10285000988D0E94F8200E94DB216115710551F0CE
:102860002091DF013091E001620F731F86E493E055
:102870000E948B102D853E854F855889D8011C9666
:102880002D933D934D935C931F9729893A894B89EA
:102890005C8950962D933D934D935C935397F8012B
:1028A000C48AD58AE68AF78A18964D925D926D920F
:1028B0007C921B97D301C2018C599F4FAF4FBF4FE2
:1028C00084839583A683B78368960FB6F894DEBF9A
:1028D0000FBECDBFDF91CF911F910F91FF90EF9071
:1028E000DF90CF90BF90AF909F908F907F906F9030
:1028F0005F904F900895FB01808191818831FAE0CB
:102900009F0759F08A312AE0920779F086319A4080
:1029100081F48EE194E00C944C0889EB93E00E94E2
:10292000F00784EB90E00C94801186E194E00C9425
:10293000E50D08950F931F93CF93DF93FB01208143
:1029400031812430320709F444C0FB01EC01253009
:1029500044E0340718F5211584E0380709F498C0DD
:1029600070F42C3083E0380709F499C02D303340DF
:1029700009F48EC0DF91CF911F910F9108952230FD
:10298000F4E03F0709F47DC008F474C08EE094E0E1
:10299000DF91CF911F910F910C94E50D223086E0CD
:1029A0003807D1F050F4211586E0380709F45CC0EF
:1029B000B0F42031344051F3DDCF2631EAE03E0758
:1029C00009F466C02A31FAE03F0701F323303640AC
:1029D00089F683EF93E0DCCF8BEF93E0D9CF828150
:1029E0009381A481B581CD01AA27BB278C019C01CD
:1029F00097FF04C022273327281B390B2A303105C3
:102A00005CF18091DC01882321F088EC90E00E9449
:102A1000461117FD10C012E581E08C8387E793E033
:102A20000E94F007123549F470E060E08091DF0108
:102A30009091E0010BC01CE4EFCF1C3409F09ACF59
:102A40006091DF017091E00190E080E0DF91CF9133
:102A50001F910F910C94271188E790E0DF91CF919F
:102A60001F910F910C944611CE010E94D40D88EC59
:102A700090E0F4CF81E08C8387E793E00E94F00739
:102A8000D3CF81E08C8387E793E00E94F007D8CF13
:102A9000CE01DF91CF911F910F910C943D111281C6
:102AA00080E793E00E94F00787E793E00E94F00739
:102AB00081E08C8388E99EEF1C3411F488E691E074
:102AC000DF91CF911F910F910C9480110E94A2056C
:102AD000AB01BC012AE08FE192E00E94EF0F60E5BC
:102AE00071E08FE192E00E9427028FE192E0089569
:102AF0008C017B010E946615EC01B7010E94270240
:102B0000CE010E94871061E08DE00E94AA0368EE6A
:102B100073E080E090E00E94450560E08DE00E9457
:102B2000AA0364EF71E080E090E00E944505C801CF
:102B30000E94780568EE73E080E090E00E94450511
:102B4000E2CF8F929F92AF92BF92DF92EF92FF926D
:102B50000F931F93CF93DF93D82F7B010E946615AD
:102B60008C016BE773E00E942702B701C8010E9445
:102B700027026CE673E0C8010E9427024D2F50E047
:102B800070E060E020E130E0C8010E943B10DD0F02
:102B90000BE010E0C0E080E5A82EB12C0150110937
:102BA00011F0CC2319F18FE192E00E9487100E946E
:102BB00066158C01B7010E94270262E573E0CC2301
:102BC00011F061E673E0C8010E942702C8010E946B
:102BD00087108C2FDF91CF911F910F91FF90EF9075
:102BE000DF90BF90AF909F908F9008956EE28FE13D
:102BF00092E00E94EB028090FC029090FD02B09265
:102C0000FD02A092FC020E94CC09D82E811106C0C0
:102C10008D2F0E94A509D82E0E9427099092FD02AF
:102C20008092FC02C1E0DD2009F4B8CFC0E0B6CF4D
:102C30000F931F93CF93DF938C010E946615EC01D5
:102C4000B8010E9427026DE571E0CE010E942702C3
:102C5000CE01DF91CF911F910F910895EF92FF92D6
:102C60000F931F93CF93DF93EC0180910C038F712F
:102C70000E9481038C01809108038F710E9481035F
:102C80007C01809104038F710E948103EF28B1F4CD
:102C900086E391E00E9418168C016EEE71E00E94AE
:102CA0002702C8010E94871081E08E8320E030E077
:102CB000A90164E074E0CE0104961BC0012BA9F5C4
:102CC0008E010C5F1F4F892BE1F486E391E00E9497
:102CD00018167C0164EC71E00E942702C7010E9473
:102CE000871081E08E8320E030E0A90163E074E08A
:102CF000C801DF91CF911F910F91FF90EF900C943D
:102D00009C0886E391E00E9418167C0168EA71E055
:102D10000E942702C7010E94871081E08E8320E075
:102D200030E0A90162E074E0E3CF892BA1F486E3EF
:102D300091E00E9418168C016DE871E00E94270254
:102D4000C8010E94871081E08E8320E030E0A90155
:102D500061E074E0B0CF8E81882399F086E391E042
:102D60000E9418168C0160E771E00E942702C801DA
:102D70000E9487101E8220E030E0A90160E074E02C
:102D80009ACFDF91CF911F910F91FF90EF9008950F
:102D9000CF93DF93EC01FB0182819381A481B58104
:102DA0008D3A22E592072FEFA207B10509F466C01C
:102DB00080F48D3F22E092072FEFA207B10509F4BE
:102DC0004DC08D3D9242AF4FB105F1F1DF91CF91F2
:102DD00008958D3922E692072FEFA207B105F1F091
:102DE0008D33924CAF4FB10589F78081813071F7F7
:102DF0008E81882349F086E194E00E94E50D8E8162
:102E000091E089278E83E2CF20E030E0A9016AE0DB
:102E100073E0CE0104960E949C08F1CF808181303E
:102E200031F48AE194E0DF91CF910C94E50D20E03C
:102E300030E0A90168E173E0803841F6CE010496E4
:102E4000DF91CF910C949C088081813071F42CE447
:102E500030E040E050E06CE073E0F0CF808122E5AC
:102E600030E040E050E08130B1F320E030E0A901F3
:102E70006DE073E0803809F0A9CFE0CF9081913008
:102E800049F480911401892780931401811102C0B3
:102E90000E94861289E291E00E941816EC0160E619
:102EA00071E00E9427024091140150E070E060E060
:102EB0002AE030E0CE010E943B10CE01DF91CF919D
:102EC0000C948710CF92DF92EF92FF920F931F9393
:102ED000CF93DF9300D000D000D0CDB7DEB78C0108
:102EE00046E050E0BE016F5F7F4F85E40E94520ACA
:102EF0008B819C81AD81BE81892B8A2B8B2B49F1E3
:102F00000E94A20568537F4F8F4F9F4FF801678340
:102F100070878187928786E0FE013196D8011B96E3
:102F200001900D928A95E1F7BE016F5F7F4FC80156
:102F30000E94C81626960FB6F894DEBF0FBECDBF0E
:102F4000DF91CF911F910F91FF90EF90DF90CF9085
:102F50000895F80185859685A785B089892B8A2BE8
:102F60008B2B41F30E94A205F801C780D084E18435
:102F7000F2846C157D058E059F05E0F280E883875D
:102F80007801FBE0EF0EF11CB701C8010E94C816E2
:102F900086E0FE013196D70101900D928A95E1F706
:102FA000C9CF1F920F920FB60F9211242F933F9308
:102FB0004F935F936F937F938F939F93AF93BF9341
:102FC000EF93FF938FE192E00E94C902FF91EF918E
:102FD000BF91AF919F918F917F916F915F914F9131
:102FE0003F912F910F900FBE0F901F9018951F9239
:102FF0000F920FB60F9211242F938F939F93EF93FD
:10300000FF93E0912F02F09130028081E091350230
:10301000F091360282FD1BC09081809138028F5F53
:103020008F7320913902821741F0E0913802F0E06D
:10303000E15EFD4F958F80933802FF91EF919F9154
:103040008F912F910F900FBE0F901F901895808138
:10305000F4CF1F920F920FB60F9211242F933F932C
:103060008F939F93AF93BF9380910C0290910D0229
:10307000A0910E02B0910F0230910B0223E0230FBA
:103080002D3758F50196A11DB11D20930B02809399
:103090000C0290930D02A0930E02B0930F02809148
:1030A000100290911102A0911202B09113020196A8
:1030B000A11DB11D8093100290931102A0931202E2
:1030C000B0931302BF91AF919F918F913F912F9138
:1030D0000F900FBE0F901F90189526E8230F0296B1
:1030E000A11DB11DD2CF1F920F920FB60F921124C6
:1030F0002F933F934F935F936F937F938F939F9300
:10310000AF93BF93EF93FF93E0911701F0911801F4
:103110000995FF91EF91BF91AF919F918F917F9111
:103120006F915F914F913F912F910F900FBE0F9034
:103130001F9018951F920F920FB60F9211242F9384
:103140003F934F935F936F937F938F939F93AF932F
:10315000BF93EF93FF93E0911501F091160109954C
:10316000FF91EF91BF91AF919F918F917F916F915F
:103170005F914F913F912F910F900FBE0F901F9035
:1031800018951F920F920FB60F9211242F933F9311
:103190004F935F936F937F938F939F93AF93BF935F
:1031A000CF93DF93EF93FF9380910A02C091320394
:1031B000D0E087FF24C01092850010928400809197
:1031C0000A028F5F80930A0280910A02082E000C87
:1031D000990B8C179D0724F480910A028C30C4F15E
:1031E0008091840090918500049680349C4908F475
:1031F0007AC08091840090918500049676C0809179
:103200000A02082E000C990B8C179D07C4F6E0915A
:103210000A028E2FEE0F990BFC01EE0FFF1FE80F35
:10322000F91FE25FFC4F808186FFC9CFE0910A025F
:103230008E2FEE0F990BFC01EE0FFF1FE80FF91F09
:10324000E25FFC4F808160E08F730E94AA03B7CFDA
:103250002091840030918500E0910A028E2FEE0FBC
:10326000990BFC01EE0FFF1FE80FF91FE25FFC4F07
:1032700081819281820F931F9093890080938800AF
:10328000E0910A028E2FEE0F990BFC01EE0FFF1F4B
:10329000E80FF91FE25FFC4F808186FF11C0E091CB
:1032A0000A028E2FEE0F990BFC01EE0FFF1FE80FA5
:1032B000F91FE25FFC4F808161E08F730E94AA03D7
:1032C000FF91EF91DF91CF91BF91AF919F918F913E
:1032D0007F916F915F914F913F912F910F900FBE12
:1032E0000F901F90189580E49CE99093890080933B
:1032F00088008FEF80930A02E3CF1F920F920FB6E0
:103300000F9211240F931F932F933F934F935F932B
:103310006F937F938F939F93AF93BF93CF93DF93DD
:10332000EF93FF93C0910802D0910902209779F1A1
:103330000E941404EE85FF855081488900910402A3
:10334000109105022091060230910702452329F0D1
:103350000617170728073907D0F4409170004D7FF2
:1033600040937000061717072807390728F12E81A8
:103370003F8143EF5FEFFA01E21BF30BCF01860FB2
:10338000971F9D878C871092090210920802FF9167
:10339000EF91DF91CF91BF91AF919F918F917F91ED
:1033A0006F915F914F913F912F911F910F910F90CE
:1033B0000FBE0F901F90189580E199E5E2CF1F9204
:1033C0000F920FB60F9211242F933F934F935F9359
:1033D0006F937F938F939F93AF93BF93EF93FF93DD
:1033E0008091B900887F803909F45BC038F5803757
:1033F000F9F0C0F48036E1F08836D1F0882309F482
:103400004DC0FF91EF91BF91AF919F918F917F91AF
:103410006F915F914F913F912F910F900FBE0F9041
:103420001F9018958038E9F1883899F0883749F766
:103430001092030285EC8093BC00E3CF803B09F43B
:1034400045C048F4803AB1F3883A09F43FC088395E
:10345000C1F685E8F0CF803C69F3D8F4883B89F663
:103460009091E20180910302981760F4E091E201EB
:1034700081E08E0F8093E201F0E0ED51FE4F8081FC
:103480008093BB009091E20180910302981708F7A6
:10349000D1CF883CF1F2883F09F0B3CF0E942009D8
:1034A000B0CF809103028032A0F6E091030281E068
:1034B0008E0F809303028091BB00F0E0ED51FE4F30
:1034C000808380910302803220F6B4CF8091030282
:1034D00081110AC0E091030281E08E0F8093030204
:1034E000F0E0ED51FE4F10821092E201B9CFCF9380
:1034F000109222021092210288EE93E0A0E0B0E048
:103500008093230290932402A0932502B093260275
:103510008FE191E09093200280931F0285EC90E070
:1035200090932C0280932B0284EC90E090932E02D7
:1035300080932D0280EC90E09093300280932F02D4
:1035400081EC90E0909332028093310282EC90E023
:10355000909334028093330286EC90E0909336028D
:1035600080933502109238021092390210923A027A
:1035700010923B02ECEBF2E0118210821282138275
:1035800014821582389682E0EC3FF807A9F784E6AA
:1035900090E09093FD028093FC028CE08093000306
:1035A000C0E1C093010360E00E94D80385E08093EE
:1035B0000C03C0930D0360E00E94D80386E0809363
:1035C0000803C093090360E00E94D80388E0809359
:1035D0000403C093050360E00E94D80383E0809356
:1035E000360384E080933703109239031092380336
:1035F0000E94140460933A0370933B0380933C034E
:1036000090933D0361E0809136030E94D80360E00F
:10361000809137030E94D803809132038C3008F0E8
:1036200065C191E0980F909332038093330390E04B
:10363000FC01EE0FFF1FE80FF91FE25FFC4F88EB64
:103640009BE09283818380E680934E0380935203B4
:1036500081E391E0909347038093460380914C036C
:1036600090914D03892BD1F480914F0380FD16C0BA
:10367000816080934F038EE493E090934D03809399
:103680004C0380EA8093480380914903807C8662E2
:103690008093490310924B0310924A0381E391E017
:1036A00090933F0380933E038091440390914503A0
:1036B000892BD1F480914F0381FD16C082608093E5
:1036C0004F038EE493E0909345038093440385EF8A
:1036D0008093400380914103807C82638093410307
:1036E000109243031092420310925303109221044C
:1036F0001092200481ED91E090931F0480931E04AA
:103700001092220410921D0410921C0485EC91E08A
:1037100090931B0480931A041092190410921804B9
:1037200089EB91E090931704809316041092110492
:10373000109210048DEA91E090930F0480930E0490
:103740001092FE031092FD0381EA91E09093FC0336
:103750008093FB031092F6031092F50385E991E044
:103760009093F4038093F3031092DC031092DB0335
:103770008BE891E09093DA038093D9031092DF03F2
:103780001092E0031092E1031092E2031092E3031F
:103790001092E4031092E5031092E6031092C60320
:1037A0001092C50381E891E09093C4038093C30312
:1037B0001092C9031092CA031092CB031092CC034B
:1037C0001092CD031092CE031092CF031092D0032B
:1037D0001092BC031092BB0387E791E09093BA0369
:1037E0008093B9031092BF031092C0031092C103DB
:1037F0001092C2031092AB031092AA038DE691E0DF
:103800009093A9038093A8031092AE031092AF0384
:103810001092B0031092B1031092B20310929C0365
:1038200010929B0383E691E090939A03809399030F
:1038300081E080939F031092A1031092A003109245
:10384000A2031092A3031092A4031092A503109256
:10385000A6031092A703109296031092950389E590
:1038600091E0909394038093930310927A031092C3
:1038700079038FE491E0909378038093770310921B
:103880007B0310927C0310927D0310927E031092B2
:1038900073031092720385E491E090937103809317
:1038A00070031092760310926603109265038BE307
:1038B00091E0909364038093630380916703807C1D
:1038C0008D608F7B8093670361E08DE00E94D80359
:1038D00082E390E0909369038093680386EB93E022
:1038E00090936B0380936A03CF9108958FEF809339
:1038F0003303A9CECF93DF93CDB7DEB72A970FB6A8
:10390000F894DEBF0FBECDBF789484B5826084BDCD
:1039100084B5816084BD85B5826085BD85B58160D3
:1039200085BD80916E00816080936E001092810051
:10393000809181008260809381008091810081600C
:1039400080938100809180008160809380008091CD
:10395000B10084608093B1008091B0008160809359
:10396000B00080917A00846080937A0080917A0020
:10397000826080937A0080917A00816080937A00DF
:1039800080917A00806880937A001092C10061E093
:103990008DE00E94D803E0912F02F091300282E086
:1039A0008083E0912B02F0912C021082E0912D0295
:1039B000F0912E0280E1808310923702E091330271
:1039C000F091340286E08083E0913102F09132027E
:1039D000808180618083E0913102F09132028081A8
:1039E00088608083E0913102F091320280818068AA
:1039F0008083E0913102F091320280818F7D80835B
:103A0000449A459A8091B9008E7F8093B900809145
:103A1000B9008D7F8093B90088E48093B80024E6D4
:103A200030E03093FD022093FC0294E49093140262
:103A30009093BC008093B8004498459888E28093A6
:103A40005C0389ED9AE09093600380935F0382E3C7
:103A50009AE090935E0380935D038DE995E09093E7
:103A600062038093610362E080E00E94D80361E01A
:103A700087E00E94D80360E087E00E94AA036CE21E
:103A800071E080E090E00E94450561E087E00E94DF
:103A9000AA0368E572E080E090E00E9445056BE0D3
:103AA00073E087E70E94A1159091150280FB92F9BF
:103AB00090931502882341F030E020E050E040E090
:103AC00063E087E70E94E50981E090E00E947805C5
:103AD0006EEF72E080E60E94A1159091150280FBC6
:103AE00093F990931502811106C062EE72E081E0B5
:103AF00090E00E94781560E080E00E941D0A80E45A
:103B000096E0909351038093500321E030E0AE01A2
:103B10004F5F5F4F60E0809152030E94AE0A0981BF
:103B2000602F6F76606180E00E941D0A63E08EEF77
:103B30000E941D0A602F80E00E941D0A65E070E06F
:103B400080E090E00E944505602F616A80E00E945D
:103B50001D0A00E030E020E050E040E0602F82E508
:103B600093E00E94350A0F5F0031A1F70E946615AD
:103B70007C0169EC72E00E942702C7010E94871055
:103B80000E94861268EE73E080E090E00E94450596
:103B900082E090E00E94780566EB72E085E40E9486
:103BA000A1159091150280FB94F990931502811153
:103BB00005C068E972E082E090E09BCF68EE73E0B8
:103BC00080E090E00E94450583E090E00E94780547
:103BD00064E972E088E20E94A115082F8091150225
:103BE00000FB81F980931502002309F47DC11A8638
:103BF000198619821A8284E593E090931E028093BD
:103C00001D02E0915D03F0915E0321E0AE01475F8C
:103C10005F4F67E080915C030995A0911D02B09110
:103C20001E021B96ED91FC911C9721E0AE01465FB0
:103C30005F4F60E018968C910995A0911D02B0919C
:103C40001E028A858C931B96ED91FC911C9721E0B6
:103C5000AE01465F5F4F61E018968C910995A09187
:103C60001D02B0911E028A8514968C9314971B96A0
:103C7000ED91FC911C9721E0AE01465F5F4F62E041
:103C800018968C910995A0911D02B0911E028A850B
:103C900015968C9315971B96ED91FC911C9721E03E
:103CA000AE01465F5F4F63E018968C910995A09135
:103CB0001D02B0911E028A8516968C9316971B964C
:103CC000ED91FC911C9721E0AE01465F5F4F66E0ED
:103CD00018968C910995A0911D02B0911E028A85BB
:103CE00017968C9317971B96ED91FC911C9722E0E9
:103CF000AE014F5F5F4F64E018968C910995A091DB
:103D00001D02B0911E0289819A8112969C938E9316
:103D100011971B96ED91FC911C9721E0AE01465F37
:103D20005F4F67E018968C910995E0911D02F09124
:103D30001E028A85838362E370E080E090E00E9447
:103D400045050E9480060E9480068111C6C08CE055
:103D50000E94F3058111C1C00E94A2056B017C0184
:103D600028E8C20E23E1D21EE11CF11C6C157D0572
:103D70008E059F0508F0B1C01982E0911D02F091F7
:103D80001E02309759F0838181114AC0E0911D02D3
:103D9000F0911E028381882309F446C01982E091C4
:103DA0001D02F0911E02309759F0838181114DC0A0
:103DB000E0911D02F0911E028381882309F449C01D
:103DC0001982E0911D02F0911E02309759F0838113
:103DD000811159C0E0911D02F0911E028381882358
:103DE00009F455C01982E0911D02F0911E0230972E
:103DF00059F0838181115CC0E0911D02F0911E0297
:103E00008381882309F458C0133009F467C064E63D
:103E100070E080E090E00E9445050E94A205A6CFD8
:103E20000E94EE018111B2CFA0911D02B0911E023D
:103E30001B96ED91FC911C9721E0AE014F5F5F4F07
:103E400065E318968C910995A9CF0E94EE01811126
:103E5000AFCFA0911D02B0911E021B96ED91FC9177
:103E60001C9721E0AE014F5F5F4F65E318968C9180
:103E70000995898190E014E0959587951A95E1F769
:103E8000182F13709DCF0E94EE018111A3CFA09136
:103E90001D02B0911E021B96ED91FC911C9721E032
:103EA000AE014F5F5F4F65E318968C9109959ACFED
:103EB0000E94EE018111A0CFA0911D02B0911E02BF
:103EC0001B96ED91FC911C9721E0AE014F5F5F4F77
:103ED00065E318968C91099597CF00E080911502C3
:103EE00000FB81F9809315020E9466158C01809178
:103EF000150269E472E081FD02C06FE272E0C80160
:103F00000E942702C8010E948710809133038C30E1
:103F100008F051C061E089E00E94D803809133032A
:103F2000282F30E0F901EE0FFF1FE20FF31FE25FD1
:103F3000FC4F9081907C9960908310923403109292
:103F400035032CE0622F0E943523829FB00111249B
:103F500030E020E0AB01420F531FFA01EE0FFF1FCC
:103F6000E40FF51FE25FFC4F908196FD16C02F5FB6
:103F70003F4F2C30310571F781110FC01092800036
:103F800082E0809381001092850010928400B19AA3
:103F900080916F00826080936F00E09133038E2FD9
:103FA00090E0FC01EE0FFF1FE80FF91FE25FFC4FEE
:103FB00080818064808386EA9FEF0E94670E68EEAE
:103FC00073E080E090E00E9445058AE590E00E9461
:103FD000670E68EE73E080E090E00E94450590E097
:103FE00080E00E94670E0E9466158C0161E872E015
:103FF0000E942702C8010E94871086E194E00E9477
:104000004C080E9466158C0166E672E00E94270249
:10401000C8010E94871083E693E00E94D70788E1D9
:1040200098E20FB6F894A895809360000FBE909325
:1040300060000E9466158C0169E572E00E9427020B
:10404000C8010E948710C8010E94871030E0E32E4B
:1040500030E0F32E83E693E00E94B00888EA93E014
:104060000E9462170091190110911A01D8018D91D7
:104070009D918D01009719F00E943508F7CF10919E
:104080001A021116E4F51A8219821B821C821D8203
:104090001E829091170280911602981771F1F89480
:1040A0008091170290E0FC0123E0EE0FFF1F2A959C
:1040B000E1F7E454FD4F28E0DE01119601900D92E6
:1040C0002A95E1F7019687709927809317028091CE
:1040D0001A02815080931A0278948091180290916C
:1040E0001902009751F0DC01ED91FC910680F781F7
:1040F000E02DBE016F5F7F4F09951150C2CF8091B7
:10410000180290911902009711F00E943508A895A5
:10411000E114F10409F49ECF0E94B502882309F44A
:1041200099CF0E94000096CF052E97FB1EF40094B5
:104130000E94AB2057FD07D00E94C62007FC03D089
:104140004EF40C94AB2050954095309521953F4FFF
:104150004F4F5F4F089590958095709561957F4F73
:104160008F4F9F4F08950E94E820A59F900DB49F08
:10417000900DA49F800D911D11240895B7FF0C94FC
:10418000B3200E94B320821B930B0895A1E21A2E44
:10419000AA1BBB1BFD010DC0AA1FBB1FEE1FFF1FEB
:1041A000A217B307E407F50720F0A21BB30BE40B3B
:1041B000F50B661F771F881F991F1A9469F7609582
:1041C0007095809590959B01AC01BD01CF0108953C
:1041D000A29FB001B39FC001A39F700D811D112448
:1041E000911DB29F700D811D1124911D089550588D
:1041F000BB27AA270E940F210C9489220E947B22B0
:1042000038F00E94822220F039F49F3F19F426F4FE
:104210000C9478220EF4E095E7FB0C947222E92FBF
:104220000E949A2258F3BA1762077307840795070A
:1042300020F079F4A6F50C94BC220EF4E0950B2E38
:10424000BA2FA02D0B01B90190010C01CA01A001E8
:104250001124FF27591B99F0593F50F4503E68F143
:104260001A16F040A22F232F342F4427585FF3CF84
:10427000469537952795A795F0405395C9F77EF455
:104280001F16BA0B620B730B840BBAF09150A1F09E
:10429000FF0FBB1F661F771F881FC2F70EC0BA0F24
:1042A000621F731F841F48F4879577956795B795AC
:1042B000F7959E3F08F0B0CF9395880F08F09927A7
:1042C000EE0F9795879508950E944E2208F481E09D
:1042D00008950E947D210C9489220E94822258F028
:1042E0000E947B2240F029F45F3F29F00C94722257
:1042F00051110C94BD220C9478220E949A2268F3EA
:104300009923B1F3552391F3951B550BBB27AA278E
:1043100062177307840738F09F5F5F4F220F331FC8
:10432000441FAA1FA9F335D00E2E3AF0E0E832D090
:1043300091505040E695001CCAF72BD0FE2F29D093
:10434000660F771F881FBB1F261737074807AB0765
:10435000B0E809F0BB0B802DBF01FF2793585F4FDA
:104360003AF09E3F510578F00C9472220C94BD22D5
:104370005F3FE4F3983ED4F3869577956795B795BC
:10438000F7959F5FC9F7880F911D9695879597F9C7
:104390000895E1E0660F771F881FBB1F6217730740
:1043A0008407BA0720F0621B730B840BBA0BEE1F55
:1043B00088F7E09508950E94E2216894B1110C9469
:1043C000BD2208950E94A22288F09F5798F0B92F2D
:1043D0009927B751B0F0E1F0660F771F881F991F3A
:1043E0001AF0BA95C9F714C0B13091F00E94BC22FE
:1043F000B1E008950C94BC22672F782F8827B85F0E
:1044000039F0B93FCCF3869577956795B395D9F791
:104410003EF490958095709561957F4F8F4F9F4F9B
:104420000895E89409C097FB3EF4909580957095A7
:1044300061957F4F8F4F9F4F9923A9F0F92F96E9F0
:10444000BB279395F695879577956795B795F11165
:10445000F8CFFAF4BB0F11F460FF1BC06F5F7F4F02
:104460008F4F9F4F16C0882311F096E911C0772314
:1044700021F09EE8872F762F05C0662371F096E81D
:10448000862F70E060E02AF09A95660F771F881FEC
:10449000DAF7880F9695879597F90895990F000890
:1044A000550FAA0BE0E8FEEF16161706E807F90706
:1044B000C0F012161306E407F50798F0621B730BA1
:1044C000840B950B39F40A2661F0232B242B252B22
:1044D00021F408950A2609F4A140A6958FEF811DC5
:1044E000811D089597F99F6780E870E060E0089566
:1044F0009FEF80EC089500240A94161617061806FC
:104500000906089500240A941216130614060506D7
:104510000895092E0394000C11F4882352F0BB0F68
:1045200040F4BF2B11F460FF04C06F5F7F4F8F4FCB
:104530009F4F089557FD9058440F551F59F05F3F06
:1045400071F04795880F97FB991F61F09F3F79F0B5
:1045500087950895121613061406551FF2CF469537
:10456000F1DF08C0161617061806991FF1CF8695B9
:104570007105610508940895E894BB27662777279D
:10458000CB0197F908950E944E2208F48FEF089509
:104590000E94DB220C9489220E947B2238F00E9428
:1045A000822220F0952311F00C9472220C94782230
:1045B00011240C94BD220E949A2270F3959FC1F39E
:1045C000950F50E0551F629FF001729FBB27F00DC1
:1045D000B11D639FAA27F00DB11DAA1F649F662716
:1045E000B00DA11D661F829F2227B00DA11D621F65
:1045F000739FB00DA11D621F839FA00D611D221F1F
:10460000749F3327A00D611D231F849F600D211D02
:10461000822F762F6A2F11249F5750409AF0F1F085
:1046200088234AF0EE0FFF1FBB1F661F771F881FEE
:1046300091505040A9F79E3F510580F00C94722292
:104640000C94BD225F3FE4F3983ED4F386957795B2
:104650006795B795F795E7959F5FC1F7FE2B880F94
:10466000911D9695879597F90895991B79E004C057
:10467000991F961708F0961B881F7A95C9F78095A1
:104680000895AA1BBB1B51E107C0AA1FBB1FA61799
:10469000B70710F0A61BB70B881F991F5A95A9F7EB
:1046A00080959095BC01CD010895EE0FFF1F0590F8
:0A46B000F491E02D0994F894FFCF77
:1046BA0099039303700377030000B903D903000039
:1046CA00D903000001AE05AE051B0200000000EB95
:1046DA00024B0278023803A90287029B02000000FB
:1046EA00008B10B305AF0500000000B008F4081DE8
:1046FA0009000000002E16130DC30F000000006E03
:10470A0013180DC60F00000000C60B090CC90F00D4
:10471A00000000130FA70FCC0F000000006217C59E
:10472A000BCF0F000000003A0D8F12D20F000000CD
:10473A0000E50AC50BD50F000000002F0CC50BD8E9
:10474A000F00000000E70D3513BD0FE10D0000005A
:10475A0000E911E512C00FD11200000000630DB488
:10476A000DD10D7B1400000000630DC812640D9C6E
:10477A001200000000630D5D13E20D570E000000E9
:0C478A0000630D5B11DE0D9A140D0A0097
:00000001FF
